# System can log on to CME Group system at the beginning of the week and maintain correct inbound and outbound sequence numbers
# (WIP) Tag 789 NextExpectedMsgSeqNum was added in FIX.4.4

iCONNECT
# submit a logon message with specified next message sequence number and receive a logon response 
I8=FIX.4.2|35=A|34=1|49=TW|52=<TIME>|56=ISLD|98=0|108=6|789=10|
E8=FIX.4.2|9=60|35=A|34=1|49=ISLD|52=00000000-00:00:00.000|56=TW|98=0|108=6|10=0|

# submit and receive a logout message
I8=FIX.4.2|35=5|34=3|49=TW|52=<TIME>|56=ISLD|
E8=FIX.4.2|9=49|35=5|34=2|49=ISLD|52=00000000-00:00:00|56=TW|10=0|

# we submit a logon message and receive a logon response
I8=FIX.4.2|35=A|34=10|49=TW|52=<TIME>|56=ISLD|98=0|108=6|
E8=FIX.4.2|9=60|35=A|34=10|49=ISLD|52=00000000-00:00:00|56=TW|98=0|108=6|10=0|

# we receive a test request
E8=FIX.4.2|9=54|35=1|34=4|49=ISLD|52=00000000-00:00:00|56=TW|112=TEST|10=0|

# we submit a heartbeat message
I8=FIX.4.2|9=45|35=0|34=4|49=TW|52=<TIME>|56=ISLD|112=TEST|
eDISCONNECT