# System can leverage TargetSubID on any logon message to specify the market segment
# (WIP) Tag 1300 MarketSegmentID not added until EP52, need workaround to use TargetSubID and SenderSubID

iCONNECT
# submit a logon message and receive a logon response
I8=FIX.4.2|35=A|34=1|49=TW|50=TARGETSUB|52=<TIME>|56=ISLD|57=SENDERSUB|98=0|108=6|
E8=FIX.4.2|9=121|35=A|34=1|49=ISLD|50=SENDERSUB|52=00000000-00:00:00.000|56=TW|57=TARGETSUB|98=0|108=6|10=0|

# receive two heartbeats
E8=FIX.4.2|9=103|35=0|34=2|49=ISLD|50=SENDERSUB|52=00000000-00:00:00.000|56=TW|57=TARGETSUB|10=0|
I8=FIX.4.2|35=0|34=2|49=TW|50=TARGETSUB|52=<TIME>|56=ISLD|57=SENDERSUB|
E8=FIX.4.2|9=103|35=0|34=3|49=ISLD|50=SENDERSUB|52=00000000-00:00:00.000|56=TW|57=TARGETSUB|10=0|

# receive test request
E8=FIX.4.2|9=112|35=1|34=4|49=ISLD|50=SENDERSUB|52=00000000-00:00:00.000|56=TW|57=TARGETSUB|112=TEST|10=210|

# submit a heartbeat
I8=FIX.4.2|35=0|34=3|49=TW|50=TARGETSUB|52=<TIME>|56=ISLD|57=SENDERSUB|

# submit a logout message and receive a logout message
I8=FIX.4.2|35=5|34=4|49=TW|50=TARGETSUB|52=<TIME>|56=ISLD|57=SENDERSUB|
E8=FIX.4.2|9=103|35=5|34=5|49=ISLD|50=SENDERSUB|52=00000000-00:00:00|56=TW|57=TARGETSUB|10=0|
eDISCONNECT