# System can properly logon to CME using security enhancement functionality with key rotation
# (WIP) Logon with a different set of secure key pairs

iCONNECT
# submit a logon message and receive a logon response
I8=FIX.4.2|35=A|34=1|49=TW|52=<TIME>|56=ISLD|98=0|108=6|
E8=FIX.4.2|9=121|35=A|34=1|49=ISLD|52=00000000-00:00:00.000|56=TW|98=0|108=6|10=0|

# receive a heartbeat
E8=FIX.4.2|9=103|35=0|34=2|49=ISLD|52=00000000-00:00:00.000|56=TW|10=0|
I8=FIX.4.2|35=0|34=2|49=TW|52=<TIME>|56=ISLD|
E8=FIX.4.2|9=103|35=0|34=3|49=ISLD|52=00000000-00:00:00.000|56=TW|10=0|

# receive a test request 
E8=FIX.4.2|9=112|35=1|34=4|49=ISLD|52=00000000-00:00:00.000|56=TW|112=TEST|10=210|

# submit a heartbeat
I8=FIX.4.2|35=0|34=3|49=TW|52=<TIME>|56=ISLD|

# submit a logout message and receive a logout message
I8=FIX.4.2|35=5|34=5|49=TW|52=<TIME>|56=ISLD|
E8=FIX.4.2|9=103|35=5|34=5|49=ISLD|52=00000000-00:00:00|56=TW|10=0|
eDISCONNECT

#iCONNECT
# submit a logon message and receive a logon response with a different set of secure key pairs (WIP)
#I8=FIX.4.2|35=A|34=1|49=TW|52=<TIME>|56=ISLD|98=0|108=6|
#E8=FIX.4.2|9=121|35=A|34=1|49=ISLD|52=00000000-00:00:00.000|56=TW|98=0|108=6|10=0|
#eDISCONNECT
