# System can receive out-of-sequence messages during a Resend Response without triggering another Resend Request

iCONNECT
# submit a logon message and receive a logon response
I8=FIX.4.2|35=A|34=1|49=TW|50=TARGETSUB|52=<TIME>|56=ISLD|57=SENDERSUB|142=TARGETLOC|143=SENDERLOC|98=0|108=6|1137=9|
E8=FIX.4.2|9=121|35=A|34=1|49=ISLD|50=SENDERSUB|52=00000000-00:00:00.000|56=TW|57=TARGETSUB|142=SENDERLOC|143=TARGETLOC|98=0|108=6|1137=9|10=0|

# submit two heartbeats
I8=FIX.4.2|35=0|34=2|49=TW|50=TARGETSUB|52=<TIME>|56=ISLD|57=SENDERSUB|142=TARGETLOC|143=SENDERLOC|
E8=FIX.4.2|9=103|35=0|34=2|49=ISLD|50=SENDERSUB|52=00000000-00:00:00.000|56=TW|57=TARGETSUB|142=SENDERLOC|143=TARGETLOC|10=0|
I8=FIX.4.2|35=0|34=10|49=TW|50=TARGETSUB|52=<TIME>|56=ISLD|57=SENDERSUB|142=TARGETLOC|143=SENDERLOC|

# submit and receive resend request
I8=FIX.4.2|35=2|34=4|49=TW|50=TARGETSUB|52=<TIME>|56=ISLD|57=SENDERSUB|142=TARGETLOC|143=SENDERLOC|7=3|16=0|10=0|
E8=FIX.4.2|9=112|35=2|34=3|49=ISLD|50=SENDERSUB|52=<TIME>|56=TW|57=TARGETSUB|142=SENDERLOC|143=TARGETLOC|7=3|16=0|10=0|

# process an execution report
I8=FIX.4.2|35=8|34=4|49=TW|50=TARGETSUB|52=<TIME>|56=ISLD|57=SENDERSUB|142=TARGETLOC|143=SENDERLOC|37=id|17=id|150=0|39=0|55=WLRI|54=1|151=100|14=0|6=0.0|

# submit a heartbeat
I8=FIX.4.2|35=0|34=3|49=TW|50=TARGETSUB|52=<TIME>|56=ISLD|57=SENDERSUB|142=TARGETLOC|143=SENDERLOC|

# acknowledge execution report
E8=FIX.4.2|9=148|35=j|34=4|49=ISLD|50=SENDERSUB|52=<TIME>|56=TW|57=TARGETSUB|142=SENDERLOC|143=TARGETLOC|45=4|58=Unsupported Message Type|372=8|380=3|10=0|

# receive and submit heartbeat
E8=FIX.4.2|9=103|35=0|34=5|49=ISLD|50=SENDERSUB|52=00000000-00:00:00.000|56=TW|57=TARGETSUB|142=SENDERLOC|143=TARGETLOC|10=0|
I8=FIX.4.2|35=0|34=5|49=TW|50=TARGETSUB|52=<TIME>|56=ISLD|57=SENDERSUB|142=TARGETLOC|143=SENDERLOC|

# submit a logout message and receive a logout message
I8=FIX.4.2|35=5|34=6|49=TW|50=TARGETSUB|52=<TIME>|56=ISLD|57=SENDERSUB|142=TARGETLOC|143=SENDERLOC|
E8=FIX.4.2|9=103|35=5|34=6|49=ISLD|50=SENDERSUB|52=<TIME>|56=TW|57=TARGETSUB|142=SENDERLOC|143=TARGETLOC|10=0|
eDISCONNECT


