# System can receive out-of-sequence messages during a Resend Response without triggering another Resend Request

iCONNECT
# submit a logon message and receive a logon response
I8=FIX.4.2|35=A|34=1|49=TW|52=<TIME>|56=ISLD|98=0|108=6|
E8=FIX.4.2|9=60|35=A|34=1|49=ISLD|52=00000000-00:00:00.000|56=TW|98=0|108=6|10=0|

# submit two heartbeats
I8=FIX.4.2|35=0|34=2|49=TW|52=<TIME>|56=ISLD|
E8=FIX.4.2|9=49|35=0|34=2|49=ISLD|52=00000000-00:00:00.000|56=TW|10=0|
I8=FIX.4.2|35=0|34=10|49=TW|52=<TIME>|56=ISLD|

# submit and receive resend request
I8=FIX.4.2|35=2|34=4|49=TW|52=<TIME>|56=ISLD|7=3|16=0|10=0|
E8=FIX.4.2|9=58|35=2|34=3|49=ISLD|52=<TIME>|56=TW|7=3|16=0|10=0|

# process an execution report
I8=FIX.4.2|35=8|34=4|49=TW|52=<TIME>|56=ISLD|37=id|17=id|20=0|150=0|39=0|55=WLRI|54=1|151=100|14=0|6=0.0|

# submit a heartbeat
I8=FIX.4.2|35=0|34=3|49=TW|52=<TIME>|56=ISLD|

# acknowledge execution report
E8=FIX.4.2|9=94|35=j|34=4|49=ISLD|52=<TIME>|56=TW|45=4|58=Unsupported Message Type|372=8|380=3|10=0|

# receive and submit heartbeat
E8=FIX.4.2|9=49|35=0|34=5|49=ISLD|52=00000000-00:00:00.000|56=TW|10=0|
I8=FIX.4.2|35=0|34=5|49=TW|52=<TIME>|56=ISLD|

# submit a logout message and receive a logout message
I8=FIX.4.2|35=5|34=6|49=TW|52=<TIME>|56=ISLD|
E8=FIX.4.2|9=49|35=5|34=6|49=ISLD|52=<TIME>|56=TW|10=0|
eDISCONNECT


